:100000000C94AA000C94C7000C94C7000C94C70071
:100010000C94C7000C94C7000C94C7000C94C70044
:100020000C94C7000C94C7000C94C7000C94660392
:100030000C94F3020C9446030C94C7000C94C70074
:100040000C94C7000C94C7000C94C7000C94860253
:100050000C94C70016021A021C021E022002220281
:100060002402260228021802180218021802180296
:10007000180218022A022C022E0230023202340226
:1000800018021802180218021802180218021802A0
:100090001802180218021802180218021802180290
:1000A0001802180218021802180218021802180280
:1000B000180218022A022C022E02300232023402E6
:1000C000A604C4044105410541054105E204EB04D1
:1000D000F404FD04410541054105410506050F05F0
:1000E000180521052E05330538053D05F705F505ED
:1000F000F305F105EF05ED05EB05E905E705E50578
:10010000E305E105DF05DD05DB05D905D705D505E7
:10011000D305D105CF05CD05E80702082508480815
:100120006B088E08B108D608FB08200945096A0942
:100130008F09B409D909FE09230A480A6D0A920AEF
:10014000B70ADB0A46312E3031000000007FBF5F66
:100150002F170F0711241FBECFE5D4E0DEBFCDBFA0
:1001600010E0A0E6B0E0E0EEFAE102C005900D92EA
:10017000A036B107D9F711E0A0E6B0E001C01D92AA
:10018000A534B107E1F70E942F0B0C946E0D0C946F
:1001900000009C01E199FECF3FBB2EBBE09A8DB3DE
:1001A00008959C01E199FECF3FBB2EBB6DBB0FB6FE
:1001B000F894E29AE19A0FBE0895AA980000000010
:1001C0000000000093B3282F207F9F70292B25BBB0
:1001D000AB9A0000000000000000000000000000DA
:1001E0000000AB98000000000000000000000000CC
:1001F0000000000093B3282F2295207F9F70292BA9
:1002000025BBAB9A000000000000000000000000C9
:1002100000000000AB98843028F48CEC9CE101973E
:10022000F1F708958DED8A95F1F70895AA9A0000E7
:1002300000000000000093B3282F207F9F70292B1F
:1002400025BBAB9A00000000000000000000000089
:1002500000000000AB98000000000000000000005B
:1002600000000000000093B38295807F9F70982B60
:1002700095BBAB9A000000000000000000000000E9
:1002800000000000AB988DED8A95F1F7089588EC99
:1002900090E020E731E0F9013197F1F70197D9F7C4
:1002A00080E385BBE0E0F8E43197F1F7AB9A94E0A6
:1002B000292F2A95F1F7AB98E8E2F2E03197F1F7B0
:1002C000AB9A292F2A95F1F7AB98292F2A95F1F7A8
:1002D00085BB892F8A95F1F7AB9A892F8A95F1F71B
:1002E000AB98892F8A95F1F780E285BB892F8A9593
:1002F000F1F7AB9A9A95F1F7AB988CEC9CE10197EA
:10030000F1F788E20E94DD0088E00E94DD0081E0D4
:100310000E94DD0086E00E94DD008CE00E94DD008E
:1003200008951F93CF93DF93EC01862F0E94DD0089
:1003300010E003C01F5F0E941601FE01E10FF11DD6
:1003400084918823B9F7DF91CF911F910895CF93BE
:10035000DF93EC01862F0E94DD0003C021960E94EE
:10036000160188818823D1F7DF91CF9108951F93DB
:10037000182F04C080E20E94160111501123D1F7FA
:100380001F910895873091F1883070F4833031F1F6
:10039000843028F48130F1F08230F0F417C08530D9
:1003A00009F1863008F51CC08B3041F18C3028F4FF
:1003B000893001F18A3000F51BC08D3019F18D3084
:1003C000F8F08E3009F18F3019F420C080E30895E1
:1003D00080E0089581E3089582E3089583E308951A
:1003E00084E3089585E3089586E3089587E30895F7
:1003F00088E3089589E3089581E4089582E40895E7
:1004000083E4089584E4089585E4089586E40895D6
:1004100090E0FC01F197E633F10550F4E65DFF4F03
:10042000EE0FFF1F0590F491E02D099481E00895EF
:1004300080E0089582E0089583E0089584E00895BF
:1004400085E0089586E0089587E0089588E008959E
:1004500089E008958AE008958BE008958CE008957E
:100460008DE008958EE008958FE008951F93182F72
:100470008F700E94C20180934101812F82958F70FD
:100480000E94C201809305011F9108951F93182FA8
:1004900020E090E007C0E92FF0E0E65FFE4F8081AA
:1004A000280F9F5F809166008917A8F7822F81959A
:1004B0000E943602E12FF0E0E65FFE4F80910501D9
:1004C0008083A12FAF5FEA2FF0E0E65FFE4F8091BF
:1004D00041018083AF5FEA2FF0E0E65FFE4F8DE0E1
:1004E0008083AF5FEA2FF0E0E65FFE4F8AE0808313
:1004F000AF5FB0E0A65FBE4F1C92929A10927F0051
:100500008AE38CB988E28AB91F9108951F920F92ED
:100510000FB60F9211242F938F939F9380916000B9
:100520008F5F80936000809160008A3008F453C030
:1005300010926000809161008F5F809361008091D4
:100540007B0090917C002FEF8F3F920729F001965E
:1005500090937C0080937B00809182008F3F19F004
:100560008F5F80938200809180008F3F19F08F5FB2
:1005700080938000809142018F3F19F08F5F8093BC
:100580004201809161008A3030F1109261008091C7
:1005900062008F5F80936200809163008F3F29F03B
:1005A000809163008F5F80936300809162008A3046
:1005B00090F01092620080916400909165008F5FCE
:1005C0009F4F49F08091640090916500019690934F
:1005D0006500809364009F918F912F910F900FBEC3
:1005E0000F901F9018951F920F920FB60F92112423
:1005F0002F933F934F935F936F937F938F939F932B
:10060000AF93BF93EF93FF9390917F00809166002B
:100610008917E8F080916700882399F4E92FF0E0CA
:10062000E65FFE4F80810E94360280910501809333
:1006300067008091410180936800809167008CB9C8
:1006400014C0809168008CB9109267000BC0E92F2C
:10065000F0E0E65FFE4FE081EE2319F488ED8AB901
:1006600004C0ECB99F5F90937F00FF91EF91BF9121
:10067000AF919F918F917F916F915F914F913F913A
:100680002F910F900FBE0F901F9018951F920F92F1
:100690000FB60F9211248F93EF93FF9392981092BD
:1006A0003E01E0913F01E43019F481E080BD01C0DA
:1006B00010BCF0E0E75BFE4FE491E9B9FF91EF91E8
:1006C0008F910F900FBE0F901F9018951F920F9251
:1006D0000FB60F921124FF920F931F932F933F9306
:1006E0004F935F936F937F938F939F93AF93BF933A
:1006F000EF93FF93FCB08AE3F81659F4F092A00050
:1007000081E080938C008FEF8093890010929F008E
:100710005EC000918C00002309F458C00536B9F181
:1007200080917B0090917C008536910580F58F2D1E
:1007300090E00E94600D892B21F080918900882330
:1007400049F58AE0F81691F08DE0F81601F58091F0
:100750009F008823E1F410928900E02FF0E0E0563A
:10076000FF4FF0820F5F00938C0030C0E02FF0E06D
:10077000E056FF4F829131968D3049F410929500EA
:10078000F082035000938A0010928C0022C01092D5
:100790008C001CC080919F00882319F4F0929F0068
:1007A00015C080919F000E940802182F8F2D0E9473
:1007B0000802E02FF0E0E056FF4F1295107F182B53
:1007C00010830F5F00938C0010929F008FEF809337
:1007D000950010927C0010927B00FF91EF91BF91E9
:1007E000AF919F918F917F916F915F914F913F91C9
:1007F0002F911F910F91FF900F900FBE0F901F90A0
:1008000018950F931F93182F062F90E00E94600DEC
:10081000892BA1F0802F90E00E94600D892B71F050
:10082000812F0E940802182F802F0E940802129523
:10083000107F182B1093810080E001C08FEF1F9173
:100840000F9108950F931F9380919500882309F0CD
:1008500003C750918A0040E091E007C0E92FF0E023
:10086000E056FF4F8081480F9F5F5917B8F74195B9
:10087000252F30E0F901E056FF4F8181481709F03C
:100880005DC39091A100992309F456C3809104019E
:10089000981709F051C3523008F44EC38091A2005A
:1008A000863049F1803109F4F3C0833009F040C348
:1008B000563009F03EC33091A30020E08091A4009F
:1008C000280F311D30933D0120933C019091A500EC
:1008D00080E04091A600840F911D90939100809339
:1008E000900021503040280F391F2631310508F083
:1008F0001BC380E31EC3563009F018C39091A300B8
:1009000080E02091A400FC01E20FF11DF0933D0175
:10091000E0933C019091A50080E02091A600BC01ED
:10092000620F711D7093910060939000E631F105A4
:1009300008F0FAC2E631F10508F0A6C0E05AFF4F10
:10094000EE0FFF1F0590F491E02D0994CB01019764
:100950008F3F910508F034C0262F60934001E19944
:10096000FECFE199FECF80E090E09FBB8EBB2DBB18
:100970000FB6F894E29AE19A0FBE20938B00809113
:100980004001809304017DC0CB0104970797C0F418
:10099000262F60939200E199FECFE199FECF81E08E
:1009A00090E09FBB8EBB2DBB0FB6F894E29AE19A04
:1009B0000FBE20939E008091920080933F0161C002
:1009C00083E060C070939D0060939C00E199FECF2E
:1009D00084E090E03EC07093870060938600E199C8
:1009E000FECF86E090E035C070937E0060937D007E
:1009F000E199FECF88E090E02CC0709307016093EE
:100A00000601E199FECF8AE090E023C070938F0049
:100A100060938E00E199FECF8CE090E01AC0709355
:100A2000440160934301E199FECF8EE090E011C054
:100A30007093090160930801E199FECF80E190E095
:100A400008C07093850060938400E199FECF82E135
:100A500090E041ED50E00E94240D13C070937400AB
:100A6000609373000EC0709376006093750009C0A8
:100A7000709378006093770004C070937A0060935D
:100A8000790080E680933E0106B600FCFDCF56C299
:100A9000583008F44BC24091A700842F90E02750B3
:100AA00030408217930709F041C2453608F03EC234
:100AB00062E070E00E94390D892B09F037C29091F5
:100AC000A30080E02091A400AC01420F511D50937F
:100AD0003D0140933C019091A50080E02091A6004B
:100AE000FC01E20FF11DF0939100E0939000CA0128
:100AF00001978E0F9F1F469708F016C2E617F7075B
:100B000009F012C26091A7004115510521F0413052
:100B1000510561F513C02091A90030E0215030400B
:100B20009091A80080E0280F391F2F3F3105D8F49D
:100B300010923E016230D1F02AE001C028E0E22F9D
:100B4000F0E0E056FF4F908180E02F5FE22FF0E071
:100B5000E056FF4F2081820F911D0497079718F4EC
:100B600010923E0103C083E080933E0180913E01DC
:100B7000882309F0DBC11091A700E0913C01F091BE
:100B80003D01E631F10508F0D9C1EA58FF4FEE0FFB
:100B9000FF1F0590F491E02D0994E8E0BAC1E8E068
:100BA000A6C1E8E092C1E8E07EC1E8E060C1E8E00B
:100BB00042C1E8E024C1E8E006C1E8E0FDC0E8E0A9
:100BC000F4C0E8E0EBC0E8E0E2C0E8E0C4C0E8E080
:100BD000A6C0E8E088C0E8E06AC0E8E061C0E8E0FC
:100BE00058C0E8E04FC0E8E046C0E8E01FC02091F0
:100BF000A90020934001E199FECFE199FECF80E06A
:100C000090E09FBB8EBB2DBB0FB6F894E29AE19AA1
:100C10000FBE20938B00809140018093040180E8F7
:100C200080933E01125009F489C1EAE02E2F2F5F14
:100C3000E22FF0E0E056FF4FE081E0939200E1996F
:100C4000FECFE199FECF81E090E09FBB8EBBEDBB74
:100C50000FB6F894E29AE19A0FBEE0939E0080915D
:100C6000920080933F0180E880933E01125009F486
:100C700065C1E22FEF5F80E880933E01125009F4D6
:100C80005DC1EE5F80E880933E01125009F456C1C9
:100C9000EE5F80E880933E01125009F44FC1EE5F91
:100CA00080E880933E01125009F448C1EE5F0E2F98
:100CB0000F5FE02FF0E0E056FF4F608160939C00F3
:100CC00010929D00E199FECF84E090E070E041ED4C
:100CD00050E00E94240D80E880933E01125009F4F8
:100CE0002DC1E02FEF5F0E2F0F5FE02FF0E0E056F9
:100CF000FF4F60816093860010928700E199FECFDC
:100D000086E090E070E041ED50E00E94240D80E824
:100D100080933E01125009F411C1E02FEF5F0E2FB6
:100D20000F5FE02FF0E0E056FF4F608160937D00A1
:100D300010927E00E199FECF88E090E070E041EDF6
:100D400050E00E94240D80E880933E01125009F487
:100D5000F5C0E02FEF5F0E2F0F5FE02FF0E0E056C1
:100D6000FF4F60816093060110920701E199FECF69
:100D70008AE090E070E041ED50E00E94240D80E8B0
:100D800080933E01125009F4D9C0E02FEF5F80E854
:100D900080933E01125009F4D1C0EE5F80E8809349
:100DA0003E01125009F4CAC0EE5F80E880933E0114
:100DB000125009F4C3C0EE5F80E880933E011250E8
:100DC00009F4BCC0EE5F0E2F0F5FE02FF0E0E0569D
:100DD000FF4F608160938E0010928F00E199FECFEB
:100DE0008CE090E070E041ED50E00E94240D80E83E
:100DF00080933E01125009F4A1C0E02FEF5F0E2F47
:100E00000F5FE02FF0E0E056FF4F608160934301F9
:100E100010924401E199FECF8EE090E070E041ED48
:100E200050E00E94240D80E880933E01125009F4A6
:100E300085C0E02FEF5F0E2F0F5FE02FF0E0E05650
:100E4000FF4F60816093080110920901E199FECF84
:100E500080E190E070E041ED50E00E94240D80E8D8
:100E600080933E01125009F469C0E02FEF5F0E2F0E
:100E70000F5FE02FF0E0E056FF4F60816093840049
:100E800010928500E199FECF82E190E070E041EDA3
:100E900050E00E94240D80E880933E01125009F436
:100EA0004DC0E02FEF5F9E2F9F5FE92FF0E0E056EF
:100EB000FF4F8081809373001092740080E88093CC
:100EC0003E011250D9F1E92FEF5F9E2F9F5FE92F6E
:100ED000F0E0E056FF4F808180937500109276001D
:100EE00080E880933E01125049F1E92FEF5F9E2F79
:100EF0009F5FE92FF0E0E056FF4F808180937700FD
:100F00001092780080E880933E011230B9F0E92F0A
:100F1000EF5FEF5FF0E0E056FF4F80818093790054
:100F200010927A0080E805C082E003C083E001C02F
:100F300081E080933E0102C010923E0190913E01FB
:100F4000903301F1913330F4892F8150833008F0D0
:100F500080C304C0903809F07CC352C382E0809300
:100F600066008091040180930A018091A20080684C
:100F700080930B0190930C0183E080937F000E948B
:100F8000460267C382E080936600809104018093EB
:100F90000A018091A20080930B01809190009091B2
:100FA0009100880F991F80930C0183E080937F004C
:100FB000E0913C01F0913D01E631F10508F01DC3DF
:100FC000E457FF4FEE0FFF1F0590F491E02D0994B9
:100FD0008091040110920D0180930E0185E08093B1
:100FE0007F00809166008E5F809366008091900004
:100FF0009091910001979093910080939000892B9C
:1010000009F4FBC290913F0180917F00E82FF0E04E
:10101000E65FFE4F10828F5FE82FF0E0E65FFE4F45
:1010200090838F5F80937F00809166008E5F8093B6
:1010300066008091900090919100019790939100AB
:1010400080939000892B09F4D8C280917F00E82F0B
:10105000F0E0E65FFE4F90E390838F5FE82FF0E0D3
:10106000E65FFE4F96E490838F5F80937F008091D0
:1010700066008E5F80936600809190009091910051
:1010800001979093910080939000892B09F4B5C249
:1010900080917F00E82FF0E0E65FFE4F91E39083C0
:1010A0008F5FE82FF0E0E65FFE4F90E390838F5F65
:1010B00080937F00809166008E5F809366008091B0
:1010C00090009091910001979093910080939000EF
:1010D000892B09F492C280917F00E82FF0E0E65F4F
:1010E000FE4F91E390838F5FE82FF0E0E65FFE4FC5
:1010F00096E590838F5F80937F00809166008E5F7E
:101100008093660080919000909191000197909358
:10111000910080939000892B09F46FC280917F0029
:10112000E82FF0E0E65FFE4F91E390838F5FE82FBA
:10113000F0E0E65FFE4F9EE290838F5F80937F003A
:10114000809166008E5F8093660080919000909100
:10115000910001979093910080939000892B09F45E
:101160004CC220919C0090919D0080917F00E82FBF
:10117000F0E0E65FFE4F90838F5FE82FF0E0E65FE0
:10118000FE4F20838F5F80937F00809166008E5F8B
:1011900080936600809190009091910001979093C8
:1011A000910080939000892B09F427C2209186003A
:1011B0009091870080917F00E82FF0E0E65FFE4F7E
:1011C00090838F5FE82FF0E0E65FFE4F20838F5F14
:1011D00080937F00809166008E5F8093660080918F
:1011E00090009091910001979093910080939000CE
:1011F000892B09F402C220917D0090917E0080919C
:101200007F00E82FF0E0E65FFE4F90838F5FE82FCE
:10121000F0E0E65FFE4F20838F5F80937F00809138
:1012200066008E5F8093660080919000909191009F
:1012300001979093910080939000892B09F4DDC170
:10124000209106019091070180917F00E82FF0E046
:10125000E65FFE4F90838F5FE82FF0E0E65FFE4F82
:1012600020838F5F80937F00809166008E5F8093E4
:101270006600809190009091910001979093910069
:1012800080939000892B09F4B8C120916B00909154
:101290006C0080917F00E82FF0E0E65FFE4F9083C6
:1012A0008F5FE82FF0E0E65FFE4F20838F5F809333
:1012B0007F00809166008E5F809366008091900031
:1012C0009091910001979093910080939000892BC9
:1012D00009F493C120916D0090916E0080917F0080
:1012E000E82FF0E0E65FFE4F90838F5FE82FF0E09D
:1012F000E65FFE4F20838F5F80937F0080916600C2
:101300008E5F80936600809190009091910001978C
:101310009093910080939000892B09F46EC12091E5
:101320006F009091700080917F00E82FF0E0E65F01
:10133000FE4F90838F5FE82FF0E0E65FFE4F208343
:101340008F5F80937F00809166008E5F8093660040
:1013500080919000909191000197909391008093DB
:101360009000892B09F449C120917100909172007D
:1013700080917F00E82FF0E0E65FFE4F90838F5F63
:10138000E82FF0E0E65FFE4F20838F5F80937F00C1
:10139000809166008E5F80936600809190009091AE
:1013A000910001979093910080939000892B09F40C
:1013B00024C120918E0090918F0080917F00E82FB2
:1013C000F0E0E65FFE4F90838F5FE82FF0E0E65F8E
:1013D000FE4F20838F5F80937F00809166008E5F39
:1013E0008093660080919000909191000197909376
:1013F000910080939000892B09F4FFC02091430154
:101400009091440180917F00E82FF0E0E65FFE4F6D
:1014100090838F5FE82FF0E0E65FFE4F20838F5FC1
:1014200080937F00809166008E5F8093660080913C
:10143000900090919100019790939100809390007B
:10144000892B09F4DAC0209108019091090180915B
:101450007F00E82FF0E0E65FFE4F90838F5FE82F7C
:10146000F0E0E65FFE4F20838F5F80937F008091E6
:1014700066008E5F8093660080919000909191004D
:1014800001979093910080939000892B09F4B5C047
:10149000209184009091850080917F00E82FF0E0FA
:1014A000E65FFE4F90838F5FE82FF0E0E65FFE4F30
:1014B00020838F5F80937F00809166008E5F809392
:1014C0006600809190009091910001979093910017
:1014D00080939000892B09F490C020917300909123
:1014E000740080917F00E82FF0E0E65FFE4F90836C
:1014F0008F5FE82FF0E0E65FFE4F20838F5F8093E1
:101500007F00809166008E5F8093660080919000DE
:101510009091910001979093910080939000892B76
:1015200009F46BC0209175009091760080917F0046
:10153000E82FF0E0E65FFE4F90838F5FE82FF0E04A
:10154000E65FFE4F20838F5F80937F00809166006F
:101550008E5F80936600809190009091910001973A
:101560009093910080939000892B09F446C02091BC
:1015700077009091780080917F00E82FF0E0E65F9F
:10158000FE4F90838F5FE82FF0E0E65FFE4F2083F1
:101590008F5F80937F00809166008E5F80936600EE
:1015A0008091900090919100019790939100809389
:1015B0009000892B11F12091790090917A0080910F
:1015C0007F00E82FF0E0E65FFE4F90838F5FE82F0B
:1015D000F0E0E65FFE4F20838F5F80937F00809175
:1015E00066008E5F809366008091900090919100DC
:1015F0000197909391008093900080917F001EC08E
:1016000085E0809366008091A10080930A0180911B
:10161000A20080930B018091A30080930C01809124
:10162000A40080930D018091A50080930E0180910C
:10163000A60080930F0186E080937F000E944602FF
:101640008091690090916A00019690936A0080935E
:1016500069008FEF809395001F910F910895CF92AD
:10166000DF92EF92FF920F931F93DF93CF9300D0FF
:10167000CDB7DEB72FE02ABB2BBB88E387BB88E062
:1016800088BB8EEF84BB15BA80E881BB12BAA895DF
:1016900088E190E00FB6F894A89581BD0FBE21BDFA
:1016A000E199FECFE199FECF80E090E09FBB8EBB39
:1016B000E09A8DB38093040180934001E199FECFBD
:1016C000E199FECF81E090E09FBB8EBBE09A8DB3A5
:1016D00080933F0180939200E199FECF84E090E0F7
:1016E00069EC70E00E940E0D90939D0080939C0029
:1016F000E199FECF86E090E069EC70E00E940E0D6B
:101700009093870080938600E199FECF88E090E077
:1017100069EC70E00E940E0D90937E0080937D0036
:10172000E199FECF8AE090E069EC70E00E940E0D36
:101730009093070180930601E199FECF8CE090E041
:1017400069EC70E00E940E0D90938F0080938E00E4
:10175000E199FECF8EE090E069EC70E00E940E0D02
:101760009093440180934301E199FECF80E190E0A2
:1017700069EC70E00E940E0D9093090180930801BE
:10178000E199FECF82E190E069EC70E00E940E0DDD
:101790009093850080938400E0913F01E43019F438
:1017A00081E080BD01C010BCF0E0E75BFE4FE4913A
:1017B000E9B988ED8AB98CE880BD83E283BD89E60A
:1017C00085BD0E94470186EE8CBF8BE083BF82E01F
:1017D00089BFC39AA99A789443E920E030E9A89593
:1017E000B29914C080916400909165008855924030
:1017F000B0F31092650010926400C398842F8A950C
:10180000F1F7C39AC9010197F1F7E9CF109263008C
:1018100043E9E42E3BE2F32ECC24CA94DC2C0DE207
:1018200014E4A895B2990BC0809163008A3038F017
:10183000C3988E2D8A95F1F7C39A1092630080E8C1
:101840000E94DD0082E40E94160188E70E941601D2
:101850008AE30E94160180E20E94160189B38983FF
:1018600080919C0090919D00892B11F41A8304C0F3
:10187000898180FF06C00A8310926C0010926B0071
:1018800005C0FA82D0926C00C0926B0084E80E947E
:10189000DD008A810E941601809186009091870068
:1018A000892B11F41A830AC0898181FF06C00A833B
:1018B00010926E0010926D0005C0FA82D0926E00F8
:1018C000C0926D0085E80E94DD008A810E941601A9
:1018D00080917D0090917E00892B11F41A8304C0C1
:1018E000898182FF06C00A831092700010926F00F7
:1018F00005C0FA82D0927000C0926F0086E80E9404
:10190000DD008A810E9416018091060190910701F5
:10191000892B11F41A8304C0898183FF06C00A83CE
:10192000109272001092710005C0FA82D09272007B
:10193000C092710087E80E94DD008A810E94160132
:1019400080EC0E94DD0082E40E94160183EC0E947C
:10195000160188E70E9416018AE30E941601809111
:101960008E0090918F00892B11F41A8309C0809109
:10197000730090917400892B11F40A8301C0FA82DC
:1019800084EC0E94DD008A810E941601809143014F
:1019900090914401892B11F41A8309C0809175003C
:1019A00090917600892B11F40A8301C0FA8285ECAC
:1019B0000E94DD008A810E941601809108019091A9
:1019C0000901892B11F41A8309C080917700909145
:1019D0007800892B11F40A8301C0FA8286EC0E94F8
:1019E000DD008A810E94160180918400909185001B
:1019F000892B11F41A8309C08091790090917A00A3
:101A0000892B11F40A8301C0FA8287EC0E94DD0061
:101A10008A810E9416010E94220403CFDF92EF9276
:101A2000FF920F931F937B018C01FB010995D82E28
:101A3000C8010196F7010995982F8D2D1F910F91DF
:101A4000FF90EF90DF900895DF92EF92FF920F9357
:101A50001F93D72E7A018C01FA010995C8010196CE
:101A60006D2DF70109951F910F91FF90EF90DF9079
:101A7000089597FB092E07260AD077FD04D00CD0D5
:101A800006D000201AF4709561957F4F0895F6F7FF
:101A9000909581959F4F0895AA1BBB1B51E107C0EC
:101AA000AA1FBB1FA617B70710F0A61BB70B881FEE
:101AB000991F5A95A9F780959095BC01CD0108957D
:101AC000911109C080538A5028F0865C806281564B
:101AD0008650B8F70895992788270895F894FFCF7E
:00000001FF
